{
  "address": "0x24BA241Bf13f99EC5E75bb4d052A326097419ee8",
  "abi": [
    {
      "inputs": [
        {
          "internalType": "address",
          "name": "_priceFeedAddress",
          "type": "address"
        }
      ],
      "stateMutability": "nonpayable",
      "type": "constructor"
    },
    {
      "inputs": [],
      "name": "UnAuthorized",
      "type": "error"
    },
    {
      "inputs": [],
      "name": "Unexpected",
      "type": "error"
    },
    {
      "stateMutability": "payable",
      "type": "fallback"
    },
    {
      "inputs": [
        {
          "internalType": "address",
          "name": "",
          "type": "address"
        }
      ],
      "name": "AmountToAddress",
      "outputs": [
        {
          "internalType": "uint256",
          "name": "",
          "type": "uint256"
        }
      ],
      "stateMutability": "view",
      "type": "function"
    },
    {
      "inputs": [],
      "name": "MINIMUM_USD",
      "outputs": [
        {
          "internalType": "uint256",
          "name": "",
          "type": "uint256"
        }
      ],
      "stateMutability": "view",
      "type": "function"
    },
    {
      "inputs": [],
      "name": "fund",
      "outputs": [],
      "stateMutability": "payable",
      "type": "function"
    },
    {
      "inputs": [
        {
          "internalType": "uint256",
          "name": "",
          "type": "uint256"
        }
      ],
      "name": "funders",
      "outputs": [
        {
          "internalType": "address",
          "name": "",
          "type": "address"
        }
      ],
      "stateMutability": "view",
      "type": "function"
    },
    {
      "inputs": [],
      "name": "i_owner",
      "outputs": [
        {
          "internalType": "address",
          "name": "",
          "type": "address"
        }
      ],
      "stateMutability": "view",
      "type": "function"
    },
    {
      "inputs": [],
      "name": "priceFeed",
      "outputs": [
        {
          "internalType": "contract AggregatorV3Interface",
          "name": "",
          "type": "address"
        }
      ],
      "stateMutability": "view",
      "type": "function"
    },
    {
      "inputs": [],
      "name": "withdraw",
      "outputs": [],
      "stateMutability": "nonpayable",
      "type": "function"
    },
    {
      "stateMutability": "payable",
      "type": "receive"
    }
  ],
  "transactionHash": "0x3e65c001d8242474214badaf41868d5978e31be417740476b1fb70adcbbd2bc2",
  "args": [
    "0x694AA1769357215DE4FAC081bf1f309aDC325306"
  ],
  "numDeployments": 1,
  "solcInputHash": "4092c05fdce7ddecf0c062441b4a5cd9",
  "bytecode": "0x60c060405234801561001057600080fd5b50604051610f51380380610f5183398181016040528101906100329190610109565b3373ffffffffffffffffffffffffffffffffffffffff1660808173ffffffffffffffffffffffffffffffffffffffff1660601b815250508073ffffffffffffffffffffffffffffffffffffffff1660a08173ffffffffffffffffffffffffffffffffffffffff1660601b8152505050610136565b600080fd5b600073ffffffffffffffffffffffffffffffffffffffff82169050919050565b60006100d6826100ab565b9050919050565b6100e6816100cb565b81146100f157600080fd5b50565b600081519050610103816100dd565b92915050565b60006020828403121561011f5761011e6100a6565b5b600061012d848285016100f4565b91505092915050565b60805160601c60a05160601c610de261016f600039600081816101b701526105200152600081816102e3015261055c0152610de26000f3fe6080604052600436106100745760003560e01c8063b60d42881161004e578063b60d4288146100fa578063cba25fdc14610104578063dba6335f14610141578063dc0d3dff1461016c57610083565b80633ccfd60b1461008d5780636b69a592146100a4578063741bef1a146100cf57610083565b36610083576100816101a9565b005b61008b6101a9565b005b34801561009957600080fd5b506100a26102e1565b005b3480156100b057600080fd5b506100b9610512565b6040516100c6919061073c565b60405180910390f35b3480156100db57600080fd5b506100e461051e565b6040516100f191906107d6565b60405180910390f35b6101026101a9565b005b34801561011057600080fd5b5061012b60048036038101906101269190610834565b610542565b604051610138919061073c565b60405180910390f35b34801561014d57600080fd5b5061015661055a565b6040516101639190610870565b60405180910390f35b34801561017857600080fd5b50610193600480360381019061018e91906108b7565b61057e565b6040516101a09190610870565b60405180910390f35b674563918244f400006101e57f0000000000000000000000000000000000000000000000000000000000000000346105bd90919063ffffffff16565b1015610226576040517f08c379a000000000000000000000000000000000000000000000000000000000815260040161021d90610941565b60405180910390fd5b6000339080600181540180825580915050600190039060005260206000200160009091909190916101000a81548173ffffffffffffffffffffffffffffffffffffffff021916908373ffffffffffffffffffffffffffffffffffffffff16021790555034600160003373ffffffffffffffffffffffffffffffffffffffff1673ffffffffffffffffffffffffffffffffffffffff16815260200190815260200160002060008282546102d89190610990565b92505081905550565b7f000000000000000000000000000000000000000000000000000000000000000073ffffffffffffffffffffffffffffffffffffffff163373ffffffffffffffffffffffffffffffffffffffff1614610366576040517fbe24598300000000000000000000000000000000000000000000000000000000815260040160405180910390fd5b60005b60008054905081101561040b5760006001600080848154811061038f5761038e6109e6565b5b9060005260206000200160009054906101000a900473ffffffffffffffffffffffffffffffffffffffff1673ffffffffffffffffffffffffffffffffffffffff1673ffffffffffffffffffffffffffffffffffffffff16815260200190815260200160002081905550808061040390610a15565b915050610369565b50600067ffffffffffffffff81111561042757610426610a5e565b5b6040519080825280602002602001820160405280156104555781602001602082028036833780820191505090505b506000908051906020019061046b92919061067c565b5060003373ffffffffffffffffffffffffffffffffffffffff164760405161049290610abe565b60006040518083038185875af1925050503d80600081146104cf576040519150601f19603f3d011682016040523d82523d6000602084013e6104d4565b606091505b505090508061050f576040517fea902f9c00000000000000000000000000000000000000000000000000000000815260040160405180910390fd5b50565b674563918244f4000081565b7f000000000000000000000000000000000000000000000000000000000000000081565b60016020528060005260406000206000915090505481565b7f000000000000000000000000000000000000000000000000000000000000000081565b6000818154811061058e57600080fd5b906000526020600020016000915054906101000a900473ffffffffffffffffffffffffffffffffffffffff1681565b6000808273ffffffffffffffffffffffffffffffffffffffff1663feaf968c6040518163ffffffff1660e01b815260040160a06040518083038186803b15801561060657600080fd5b505afa15801561061a573d6000803e3d6000fd5b505050506040513d601f19601f8201168201806040525081019061063e9190610b60565b505050915050670de0b6b3a7640000846402540be4008361065f9190610bdb565b6106699190610cf2565b6106739190610d7b565b91505092915050565b8280548282559060005260206000209081019282156106f5579160200282015b828111156106f45782518260006101000a81548173ffffffffffffffffffffffffffffffffffffffff021916908373ffffffffffffffffffffffffffffffffffffffff1602179055509160200191906001019061069c565b5b5090506107029190610706565b5090565b5b8082111561071f576000816000905550600101610707565b5090565b6000819050919050565b61073681610723565b82525050565b6000602082019050610751600083018461072d565b92915050565b600073ffffffffffffffffffffffffffffffffffffffff82169050919050565b6000819050919050565b600061079c61079761079284610757565b610777565b610757565b9050919050565b60006107ae82610781565b9050919050565b60006107c0826107a3565b9050919050565b6107d0816107b5565b82525050565b60006020820190506107eb60008301846107c7565b92915050565b600080fd5b600061080182610757565b9050919050565b610811816107f6565b811461081c57600080fd5b50565b60008135905061082e81610808565b92915050565b60006020828403121561084a576108496107f1565b5b60006108588482850161081f565b91505092915050565b61086a816107f6565b82525050565b60006020820190506108856000830184610861565b92915050565b61089481610723565b811461089f57600080fd5b50565b6000813590506108b18161088b565b92915050565b6000602082840312156108cd576108cc6107f1565b5b60006108db848285016108a2565b91505092915050565b600082825260208201905092915050565b7f53656e64206d696e696d756d2024350000000000000000000000000000000000600082015250565b600061092b600f836108e4565b9150610936826108f5565b602082019050919050565b6000602082019050818103600083015261095a8161091e565b9050919050565b7f4e487b7100000000000000000000000000000000000000000000000000000000600052601160045260246000fd5b600061099b82610723565b91506109a683610723565b9250827fffffffffffffffffffffffffffffffffffffffffffffffffffffffffffffffff038211156109db576109da610961565b5b828201905092915050565b7f4e487b7100000000000000000000000000000000000000000000000000000000600052603260045260246000fd5b6000610a2082610723565b91507fffffffffffffffffffffffffffffffffffffffffffffffffffffffffffffffff821415610a5357610a52610961565b5b600182019050919050565b7f4e487b7100000000000000000000000000000000000000000000000000000000600052604160045260246000fd5b600081905092915050565b50565b6000610aa8600083610a8d565b9150610ab382610a98565b600082019050919050565b6000610ac982610a9b565b9150819050919050565b600069ffffffffffffffffffff82169050919050565b610af281610ad3565b8114610afd57600080fd5b50565b600081519050610b0f81610ae9565b92915050565b6000819050919050565b610b2881610b15565b8114610b3357600080fd5b50565b600081519050610b4581610b1f565b92915050565b600081519050610b5a8161088b565b92915050565b600080600080600060a08688031215610b7c57610b7b6107f1565b5b6000610b8a88828901610b00565b9550506020610b9b88828901610b36565b9450506040610bac88828901610b4b565b9350506060610bbd88828901610b4b565b9250506080610bce88828901610b00565b9150509295509295909350565b6000610be682610b15565b9150610bf183610b15565b9250827f7fffffffffffffffffffffffffffffffffffffffffffffffffffffffffffffff0482116000841360008413161615610c3057610c2f610961565b5b817f80000000000000000000000000000000000000000000000000000000000000000583126000841260008413161615610c6d57610c6c610961565b5b827f80000000000000000000000000000000000000000000000000000000000000000582126000841360008412161615610caa57610ca9610961565b5b827f7fffffffffffffffffffffffffffffffffffffffffffffffffffffffffffffff0582126000841260008412161615610ce757610ce6610961565b5b828202905092915050565b6000610cfd82610723565b9150610d0883610723565b9250817fffffffffffffffffffffffffffffffffffffffffffffffffffffffffffffffff0483118215151615610d4157610d40610961565b5b828202905092915050565b7f4e487b7100000000000000000000000000000000000000000000000000000000600052601260045260246000fd5b6000610d8682610723565b9150610d9183610723565b925082610da157610da0610d4c565b5b82820490509291505056fea264697066735822122023f031ad51af0c4d0c4df9f76e746781550f53dc331d10caf36cc97b855bced164736f6c63430008080033",
  "devdoc": {
    "kind": "dev",
    "methods": {},
    "version": 1
  },
  "userdoc": {
    "kind": "user",
    "methods": {},
    "version": 1
  },
  "storageLayout": {
    "storage": [
      {
        "astId": 65,
        "contract": "contracts/FundMe.sol:FundMe",
        "label": "funders",
        "offset": 0,
        "slot": "0",
        "type": "t_array(t_address)dyn_storage"
      },
      {
        "astId": 69,
        "contract": "contracts/FundMe.sol:FundMe",
        "label": "AmountToAddress",
        "offset": 0,
        "slot": "1",
        "type": "t_mapping(t_address,t_uint256)"
      }
    ],
    "types": {
      "t_address": {
        "encoding": "inplace",
        "label": "address",
        "numberOfBytes": "20"
      },
      "t_array(t_address)dyn_storage": {
        "base": "t_address",
        "encoding": "dynamic_array",
        "label": "address[]",
        "numberOfBytes": "32"
      },
      "t_mapping(t_address,t_uint256)": {
        "encoding": "mapping",
        "key": "t_address",
        "label": "mapping(address => uint256)",
        "numberOfBytes": "32",
        "value": "t_uint256"
      },
      "t_uint256": {
        "encoding": "inplace",
        "label": "uint256",
        "numberOfBytes": "32"
      }
    }
  }
}